:100000000C942A000C943F000C943F000C943F0089
:100010000C943F000C943F000C943F000C943F0064
:100020000C943F000C943F000C943F000C943F0054
:100030000C943F000C943F000C943F000C943F0044
:100040000C943F000C943F000C943F000C943F0034
:100050000C943F0011241FBECFE5D4E0DEBFCDBF1E
:1000600011E0A0E6B0E0E0EAF7E202C005900D92F0
:10007000AC39B107D9F70E9424120C94CE130C941A
:100080000000EF92FF920F931F937B018C0120E001
:1000900030E040E05FE40E94ED0388238CF0C8016B
:1000A000B70120E030E040E05FE40E94B9010E9427
:1000B000AB049B01AC01205030404040504806C08A
:1000C000C801B7010E94AB049B01AC01B901CA0190
:1000D0001F910F91FF90EF900895A0E0B0E0E3E74B
:1000E000F0E00C949713DC012B01FA019C91923003
:1000F00008F439C1EB018881823008F433C19430AF
:1001000069F4843009F02FC111969C91119789816F
:10011000981709F428C1A0E6B0E025C1843009F49D
:1001200021C18230A9F4923009F01DC19A01AD01BC
:1001300088E0EA010990AE01E90109929E0181502F
:10014000C1F7E201898111969C918923818308C1BD
:10015000923009F407C112962D903C901397EB0151
:100160008A819B811496AD90BD90CD90DC901797BD
:10017000EC80FD800E811F819101281B390BB90194
:1001800037FF04C066277727621B730B6032710547
:100190000CF061C0121613066CF537014801062EEB
:1001A00004C096948794779467940A94D2F721E0D8
:1001B00030E040E050E004C0220F331F441F551FC1
:1001C0006A95D2F721503040404050402E213F21C7
:1001D00040235123211531054105510521F021E02E
:1001E00030E040E050E079018A01E628F72808294C
:1001F00019293CC0232BD1F1260E371E35014601AB
:10020000062E04C096948794779467940A94D2F744
:1002100021E030E040E050E004C0220F331F441FD3
:10022000551F6A95D2F721503040404050402A2156
:100230003B214C215D21211531054105510521F05E
:1002400021E030E040E050E059016A01A628B728DB
:10025000C828D9280BC0821593052CF01C01AA24AC
:10026000BB24650103C0EE24FF24870111969C91F5
:10027000D20111968C91981709F445C0992339F051
:10028000A80197012A193B094C095D0906C0A6017E
:1002900095012E193F09400B510B57FD08C01182E3
:1002A0003382228224833583468357831DC081E0B5
:1002B00081833382228288279927DC01821B930B5A
:1002C000A40BB50B84839583A683B7830DC0220F3F
:1002D000331F441F551F24833583468357838281F0
:1002E000938101979383828324813581468157814D
:1002F000DA01C9010197A109B1098F5F9F4FAF4F83
:10030000BF4328F30BC0918333822282EA0CFB1C8B
:100310000C1D1D1DE482F5820683178383E0808314
:10032000248135814681578157FF1AC0C901AA2708
:1003300097FDA095BA2F81709070A070B0705695FF
:10034000479537952795822B932BA42BB52B848328
:100350009583A683B7838281938101969383828359
:10036000DF0101C0D201CD01CDB7DEB7E2E10C94CF
:10037000B313A0E2B0E0EFEBF1E00C94A3136983B8
:100380007A838B839C832D833E834F835887E9E058
:10039000EE2EF12CEC0EFD1ECE010196B7010E944F
:1003A00023068E010F5E1F4FCE010596B8010E94F5
:1003B00023068A8991E089278A8BC701B801AE019B
:1003C000475E5F4F0E946D000E944E05A096E6E0DA
:1003D0000C94BF13A0E2B0E0E0EFF1E00C94A313A3
:1003E00069837A838B839C832D833E834F835887D5
:1003F000F9E0EF2EF12CEC0EFD1ECE010196B701B7
:100400000E9423068E010F5E1F4FCE010596B80194
:100410000E942306C701B801AE01475E5F4F0E94EC
:100420006D000E944E05A096E6E00C94BF13A0E27A
:10043000B0E0EDE1F2E00C94971369837A838B834B
:100440009C832D833E834F835887CE010196BE0146
:10045000675F7F4F0E942306CE010596BE016F5E47
:100460007F4F0E9423069985923088F089898230D7
:10047000C8F0943019F4823051F404C0843029F467
:10048000923081F480E690E0C6C0923049F420E0DA
:100490009A858A89981321E02A87CE010996BBC0E4
:1004A000823049F420E09A858A89981321E02A8BCA
:1004B000CE014196B0C02D843E844F8458886D880B
:1004C0007E888F88988CEE24FF248701AA24BB2481
:1004D000650140E050E060E070E0E0E0F0E0C10184
:1004E00081709070892BE9F0E60CF71C081D191D2E
:1004F0009A01AB012A0D3B1D4C1D5D1D80E090E073
:10050000A0E0B0E0E614F7040805190520F481E046
:1005100090E0A0E0B0E0BA01A901480F591F6A1F9E
:100520007B1FAA0CBB1CCC1CDD1C97FE08C081E005
:1005300090E0A0E0B0E0A82AB92ACA2ADB2A3196C6
:10054000E032F10549F0660C771C881C991C569422
:10055000479437942794C3CFFA85EA892B893C893D
:100560008B859C85280F391F2E5F3F4F17C0CA010E
:1005700081709070892B61F016950795F794E79438
:1005800080E090E0A0E0B0E8E82AF92A0A2B1B2BD3
:1005900076956795579547952F5F3F4F77FDE7CF46
:1005A0000CC0440F551F661F771F17FD4160EE0CEE
:1005B000FF1C001F111F21503040403090E05907B0
:1005C00090E0690790E4790760F32B8F3C8FDB01A3
:1005D000CA018F779070A070B07080349105A1052A
:1005E000B10561F447FD0AC0E114F10401051105EC
:1005F00029F0405C5F4F6F4F7F4F40781A8EFE1797
:1006000011F081E08A8F4D8F5E8F6F8F78A383E02A
:10061000898FCE0149960E944E05A096E2E10C9486
:10062000B313A8E1B0E0E7E1F3E00C949F13698312
:100630007A838B839C832D833E834F835887B9E0D5
:10064000EB2EF12CEC0EFD1ECE010196B7010E949F
:1006500023068E010F5E1F4FCE010596B8010E9442
:1006600023062985223008F47EC03989323010F4FF
:10067000B8017CC08A859A8989278A87243011F03D
:10068000223031F4231709F06EC060E670E06EC0CE
:10069000343039F41D861E861F86188A1C861B86F8
:1006A00004C0323021F484E08987B7015FC02B8514
:1006B0003C858B899C89281B390B3C872B87ED84D3
:1006C000FE840F851889AD88BE88CF88D88CEA143F
:1006D000FB040C051D0540F4EE0CFF1C001F111F50
:1006E000215030403C872B8720E030E040E050E054
:1006F00080E090E0A0E0B0E460E070E0EA14FB0489
:100700000C051D0540F0282B392B4A2B5B2BEA18D2
:10071000FB080C091D09B695A79597958795EE0CD2
:10072000FF1C001F111F6F5F7F4F6F31710531F785
:10073000DA01C9018F779070A070B0708034910594
:10074000A105B10561F427FD0AC0E114F10401051A
:10075000110529F0205C3F4F4F4F5F4F20782D87C8
:100760003E874F87588BBE01675F7F4FCB010E944A
:100770004E056896EAE00C94BB13A8E1B0E0E3EC08
:10078000F3E00C94A31369837A838B839C832D837A
:100790003E834F83588789E0E82EF12CEC0EFD1E36
:1007A000CE010196B7010E9423068E010F5E1F4FF6
:1007B000CE010596B8010E9423068985823040F05B
:1007C0008989823028F0C701B8010E949B0601C0C8
:1007D0008FEF6896E6E00C94BF13A8E1B0E0E3EF7A
:1007E000F3E00C94A31369837A838B839C832D831A
:1007F0003E834F83588789E0E82EF12CEC0EFD1ED6
:10080000CE010196B7010E9423068E010F5E1F4F95
:10081000CE010596B8010E9423068985823040F0FA
:100820008989823028F0C701B8010E949B0601C067
:100830008FEF6896E6E00C94BF13A8E1B0E0E3E226
:10084000F4E00C94A31369837A838B839C832D83B8
:100850003E834F83588789E0E82EF12CEC0EFD1E75
:10086000CE010196B7010E9423068E010F5E1F4F35
:10087000CE010596B8010E9423068985823040F09A
:100880008989823028F0C701B8010E949B0601C007
:1008900081E06896E6E00C94BF13A8E0B0E0E3E5E1
:1008A000F4E00C94A0139B01AC0183E08983DA018E
:1008B000C9018827B7FD83959927AA27BB27B82E9A
:1008C000211531054105510519F482E089833AC0AB
:1008D0008823A9F0203080E0380780E0480780E8CE
:1008E000580729F460E070E080E09FEC30C0EE240F
:1008F000FF248701E21AF30A040B150B02C07901E9
:100900008A018EE1C82ED12CDC82CB82ED82FE8260
:100910000F831887C801B7010E94FF0401971816BA
:10092000190684F4082E04C0EE0CFF1C001F111FD2
:100930000A94D2F7ED82FE820F831887C81AD90A6B
:10094000DC82CB82BA82CE0101960E944E052896A7
:10095000E9E00C94BC13ACE0B0E0E1EBF4E00C9403
:10096000A71369837A838B839C83CE010196BE0192
:100970006B5F7F4F0E9423068D81823061F1823050
:1009800050F1843021F48E81882351F12EC02F81C3
:10099000388537FD20C06E812F3131051CF066236C
:1009A000F9F023C08EE190E0821B930B29853A85F4
:1009B0004B855C8504C056954795379527958A9554
:1009C000D2F76623B1F050954095309521953F4F71
:1009D0004F4F5F4F0EC020E030E040E050E009C0D4
:1009E0002FEF3FEF4FEF5FE704C020E030E040E043
:1009F00050E8B901CA012C96E2E00C94C313EF92BF
:100A0000FF920F931F937B018C0180E0E81680E03A
:100A1000F80681E0080780E0180788F48FEFE816F1
:100A2000F1040105110531F028F088E090E0A0E024
:100A3000B0E017C080E090E0A0E0B0E012C080E03D
:100A4000E81680E0F80680E0080781E0180728F043
:100A500088E190E0A0E0B0E004C080E190E0A0E098
:100A6000B0E020E230E040E050E0281B390B4A0BB8
:100A70005B0B04C016950795F794E7948A95D2F717
:100A8000F701E859FF4F8081281B310941095109BD
:100A9000C9011F910F91FF90EF900895DF92EF929F
:100AA000FF920F931F93FC01E480F580068117816C
:100AB000D1808081823048F480E090E0A0E1B0E015
:100AC000E82AF92A0A2B1B2BA5C0843009F49FC001
:100AD000823021F4EE24FF24870105C0E114F104E3
:100AE0000105110519F4E0E0F0E096C06281738120
:100AF0009FEF623879070CF05BC022E83FEF261BBE
:100B0000370B2A3131052CF020E030E040E050E096
:100B10002AC0B801A701022E04C0769567955795A3
:100B200047950A94D2F781E090E0A0E0B0E004C0DD
:100B3000880F991FAA1FBB1F2A95D2F70197A109F9
:100B4000B1098E219F21A023B1230097A105B105F2
:100B500021F081E090E0A0E0B0E09A01AB01282B09
:100B6000392B4A2B5B2BDA01C9018F779070A0706B
:100B7000B07080349105A105B10539F427FF09C093
:100B8000205C3F4F4F4F5F4F04C0215C3F4F4F4FA2
:100B90005F4FE0E0F0E02030A0E03A07A0E04A0735
:100BA000A0E45A0710F0E1E0F0E079018A0127C0E3
:100BB0006038710564F5FB01E158FF4FD801C701AA
:100BC0008F779070A070B07080349105A105B10549
:100BD00039F4E7FE0DC080E490E0A0E0B0E004C08E
:100BE0008FE390E0A0E0B0E0E80EF91E0A1F1B1FA3
:100BF00017FF05C016950795F794E794319687E09F
:100C000016950795F794E7948A95D1F705C0EE24D9
:100C1000FF248701EFEFF0E06E2F67956627679559
:100C2000902F9F77D794DD24D7948E2F8695492FC8
:100C3000462B582F5D29B701CA011F910F91FF90D4
:100C4000EF90DF900895FC01DB014081518122810A
:100C5000622F6F7770E0221F2227221F9381892F36
:100C6000880F822B282F30E0991F9927991F119602
:100C70009C93119721153105A9F541155105610581
:100C8000710511F482E037C082E89FEF13969C93C0
:100C90008E9312979A01AB0167E0220F331F441F16
:100CA000551F6A95D1F783E08C930DC0220F331F37
:100CB000441F551F12968D919C911397019713967F
:100CC0009C938E931297203080E0380780E048078D
:100CD00080E4580758F314962D933D934D935C93FD
:100CE000179708952F3F310579F441155105610596
:100CF000710519F484E08C93089564FF03C081E0CA
:100D00008C9312C01C9210C02F57304013963C9306
:100D10002E93129783E08C9387E0440F551F661F34
:100D2000771F8A95D1F7706414964D935D936D93F8
:100D30007C93179708951F93DC01FB019C919230DF
:100D400008F447C08081823008F443C0943051F4E5
:100D500011961C91843099F58181682F70E0611B98
:100D600071093FC0843021F0923031F48230B9F102
:100D70008181882389F12DC011961C9111978230B1
:100D8000F1F081811817D9F412962D913C911397A7
:100D9000828193818217930794F028173907BCF05A
:100DA00014968D919D910D90BC91A02D248135813B
:100DB00046815781281739074A075B0718F4112322
:100DC00041F00AC082179307A407B50740F4112326
:100DD00019F061E070E005C06FEF7FEF02C060E0E6
:100DE00070E0CB011F910895DF93CF9300D000D026
:100DF000CDB7DEB789836A838981282F30E03C83B1
:100E00002B838B819C8181309105D1F02B813C819A
:100E1000223031052CF48B819C81009761F01EC03B
:100E20002B813C812230310581F08B819C81833084
:100E3000910581F013C0EAE3F0E08A8180830EC05F
:100E4000E7E3F0E08A81808309C0E4E3F0E08A818F
:100E5000808304C0E1E3F0E08A8180830F900F90EB
:100E60000F900F90CF91DF910895DF93CF9300D033
:100E700000D0CDB7DEB789836A838981282F30E01F
:100E80003C832B838B819C8181309105D1F02B8118
:100E90003C81223031052CF48B819C81009761F0DC
:100EA0001EC02B813C812230310581F08B819C81D9
:100EB0008330910581F013C0EBE3F0E08A818083F9
:100EC0000EC0E8E3F0E08A81808309C0E5E3F0E04A
:100ED0008A81808304C0E2E3F0E08A8180830F90FE
:100EE0000F900F900F90CF91DF910895DF93CF93E4
:100EF00000D000D0CDB7DEB78A8319828A81282F2F
:100F000030E03C832B838B819C8181309105D1F033
:100F10002B813C81223031052CF48B819C81009700
:100F200061F01EC02B813C812230310581F08B8124
:100F30009C818330910581F013C0E9E3F0E080816A
:100F400089830EC0E6E3F0E08081898309C0E3E392
:100F5000F0E08081898304C0E0E3F0E08081898350
:100F600089810F900F900F900F90CF91DF9108958E
:100F7000DF93CF9300D0CDB7DEB789836A838981B1
:100F8000883060F58A818130A1F4AAE3B0E0EAE319
:100F9000F0E08081482F8981282F30E081E090E0C7
:100FA000022E02C0880F991F0A94E2F7842B8C93BB
:100FB000BCC0AAE3B0E0EAE3F0E08081482F8A8178
:100FC000282F30E081E090E0022E02C0880F991FA8
:100FD0000A94E2F7809584238C93A7C0898180319D
:100FE000A8F58981883090F18A818130B9F4A7E32E
:100FF000B0E0E7E3F0E08081482F8981882F90E01E
:101000009C012850304081E090E0022E02C0880F01
:10101000991F0A94E2F7842B8C9387C0A7E3B0E072
:10102000E7E3F0E08081482F8A81882F90E09C01DF
:101030002850304081E090E0022E02C0880F991FB6
:101040000A94E2F7809584238C936FC0898188315C
:10105000A8F58981803190F18A818130B9F4A4E3C7
:10106000B0E0E4E3F0E08081482F8981882F90E0B0
:101070009C012051304081E090E0022E02C0880F98
:10108000991F0A94E2F7842B8C934FC0A4E3B0E03D
:10109000E4E3F0E08081482F8A81882F90E09C0172
:1010A0002051304081E090E0022E02C0880F991F4D
:1010B0000A94E2F7809584238C9337C0898180322B
:1010C000A0F58981883188F18A818130B9F4A1E362
:1010D000B0E0E1E3F0E08081482F8981882F90E043
:1010E0009C012851304081E090E0022E02C0880F20
:1010F000991F0A94E2F7842B8C9317C0A1E3B0E008
:10110000E1E3F0E08081482F8A81882F90E09C0104
:101110002851304081E090E0022E02C0880F991FD4
:101120000A94E2F7809584238C930F900F90CF91CF
:10113000DF910895DF93CF9300D0CDB7DEB78983D9
:101140006A838981883008F047C08A818130A1F4A0
:10115000ABE3B0E0EBE3F0E08081482F8981282FFA
:1011600030E081E090E0022E02C0880F991F0A94BF
:10117000E2F7842B8C9336C18A818823A9F4ABE3F0
:10118000B0E0EBE3F0E08081482F8981282F30E048
:1011900081E090E0022E02C0880F991F0A94E2F7C6
:1011A000809584238C931EC18A81823009F01AC1F4
:1011B000ABE3B0E0EBE3F0E08081482F8981282F9A
:1011C00030E081E090E0022E02C0880F991F0A945F
:1011D000E2F784278C9306C18981803108F054C0DE
:1011E0008981883008F450C08A818130B9F4A8E33D
:1011F000B0E0E8E3F0E08081482F8981882F90E01B
:101200009C012850304081E090E0022E02C0880FFF
:10121000991F0A94E2F7842B8C93E4C08A81882377
:10122000C1F4A8E3B0E0E8E3F0E08081482F8981D1
:10123000882F90E09C012850304081E090E0022E01
:1012400002C0880F991F0A94E2F7809584238C933B
:10125000C9C08A81823009F0C5C0A8E3B0E0E8E3E4
:10126000F0E08081482F8981882F90E09C012850F0
:10127000304081E090E0022E02C0880F991F0A944E
:10128000E2F784278C93AEC08981883108F054C07E
:101290008981803108F450C08A818130B9F4A5E396
:1012A000B0E0E5E3F0E08081482F8981882F90E06D
:1012B0009C012051304081E090E0022E02C0880F56
:1012C000991F0A94E2F7842B8C938CC08A8188231F
:1012D000C1F4A5E3B0E0E5E3F0E08081482F898127
:1012E000882F90E09C012051304081E090E0022E58
:1012F00002C0880F991F0A94E2F7809584238C938B
:1013000071C08A81823009F06DC0A5E3B0E0E5E3E9
:10131000F0E08081482F8981882F90E09C01205146
:10132000304081E090E0022E02C0880F991F0A949D
:10133000E2F784278C9356C08981803208F052C02E
:101340008981883108F44EC08A818130B9F4A2E3E2
:10135000B0E0E2E3F0E08081482F8981882F90E0BF
:101360009C012851304081E090E0022E02C0880F9D
:10137000991F0A94E2F7842B8C9334C08A818823C6
:10138000C1F4A2E3B0E0E2E3F0E08081482F89817C
:10139000882F90E09C012851304081E090E0022E9F
:1013A00002C0880F991F0A94E2F7809584238C93DA
:1013B00019C08A818230B1F4A2E3B0E0E2E3F0E048
:1013C0008081482F8981882F90E09C0128513040EE
:1013D00081E090E0022E02C0880F991F0A94E2F784
:1013E00084278C930F900F90CF91DF910895DF9316
:1013F000CF9300D0CDB7DEB789838981883098F448
:10140000E9E3F0E08081282F30E08981882F90E0A7
:10141000A90102C0559547958A95E2F7CA01582F50
:1014200051705A8359C089818031D8F489818830BC
:10143000C0F08981803108F04EC0E6E3F0E08081A1
:10144000282F30E08981882F90E00897A90102C0F9
:10145000559547958A95E2F7CA01582F51705A83DE
:101460003BC089818831D0F489818031B8F089818D
:10147000883188F5E3E3F0E08081282F30E089812E
:10148000882F90E04097A90102C0559547958A950D
:10149000E2F7CA01582F51705A831EC089818032E9
:1014A000D0F489818831B8F089818032A0F4E0E3FA
:1014B000F0E08081282F30E08981882F90E04897E4
:1014C000A90102C0559547958A95E2F7CA01582FA0
:1014D00051705A8301C01A828A810F900F90CF9168
:1014E000DF910895DF93CF9300D000D00F92CDB756
:1014F000DEB79B838A836C834D83198219820FC068
:101500008981282F30E08A819B81FC01E20FF31F43
:1015100080816D810E94B80789818F5F898399815D
:101520008C81981768F30F900F900F900F900F9089
:10153000CF91DF910895DF93CF9300D000D00F9229
:10154000CDB7DEB79B838A836C834D831982198262
:101550000FC08981282F30E08A819B81FC01E20F36
:10156000F31F80816D810E949A0889818F5F898332
:1015700099818C81981768F30F900F900F900F90BE
:101580000F90CF91DF910895DF93CF93CDB7DEB762
:1015900088E691E067E041E00E94720A89E061E03C
:1015A0000E94B8078AE061E00E94B807CF91DF91FE
:1015B0000895DF93CF9300D0CDB7DEB78A83198229
:1015C00023C08981882F90E0FC01E859FE4F4081BB
:1015D0008A81882F90E0FC01E159FE4F8081282FFD
:1015E00030E08981882F90E0B90102C07595679538
:1015F0008A95E2F7CB01982F9170842F692F0E9472
:101600009A0889818F5F898389818730D0F20F9012
:101610000F90CF91DF910895DF93CF9300D000D04A
:10162000CDB7DEB789836A838981282F30E03C8378
:101630002B838B819C81009731F02B813C81213061
:10164000310531F009C089E06A810E949A0804C01E
:101650008AE06A810E949A080F900F900F900F9075
:10166000CF91DF910895DF93CF93CDB7DEB78AE0B6
:1016700060E00E94B8078AE061E00E949A088BE06F
:1016800060E00E94B8078BE061E00E949A088CE05D
:1016900060E00E94B8078CE061E00E949A08CF9158
:1016A000DF910895DF93CF9300D0CDB7DEB7898364
:1016B0008981882F90E0FC01E758FE4F80810E94CD
:1016C000F709882371F48981882F90E0FC01E7589D
:1016D000FE4F80810E94F7098823A9F381E08A8365
:1016E00001C01A828A810F900F90CF91DF910895E7
:1016F0000F931F93DF93CF93CDB7DEB7CC54D04079
:101700000FB6F894DEBF0FBECDBF80E06FEF0E9432
:10171000F40688E061E00E94B80789E061E00E9479
:10172000B807FE01E75BFF4F80E090E0A0EFB1E477
:1017300080839183A283B3838E010B5B1F4FFE01D5
:10174000E75BFF4F608171818281938120E030E00F
:101750004AE755E40E941702DC01CB01F8018083BF
:101760009183A283B383FE01EB5BFF4F60817181A4
:101770008281938120E030E040E85FE30E941D0415
:10178000882344F4FE01ED5BFF4F81E090E09183FC
:10179000808364C0FE01EB5BFF4F608171818281B9
:1017A000938120E03FEF4FE757E40E94BD031816F6
:1017B0000CF043C0FE01E75BFF4F608171818281C5
:1017C000938120E030E040E251E40E941702DC0106
:1017D000CB018E010D5B1F4FBC01CD010E9441006A
:1017E000DC01CB01F801918380831FC0FE01EF5B18
:1017F000FF4F80E991E091838083FE01EF5BFF4F13
:10180000808191810197F1F7FE01EF5BFF4F91839A
:101810008083DE01AD5BBF4FFE01ED5BFF4F80813A
:101820009181019711969C938E93FE01ED5BFF4F82
:10183000808191810097D1F624C08E010D5B1F4FEE
:10184000FE01EB5BFF4F60817181828193810E9479
:101850004100DC01CB01F80191838083FE01ED5B47
:10186000FF4F80819181FE01FF9691838083FE016D
:10187000FF96808191810197F1F7FE01FF96918398
:10188000808388E30E94470E80E090E0ACE1B2E400
:101890008BAF9CAFADAFBEAF6BAD7CAD8DAD9EAD34
:1018A0002BEA3AEA4AEA50E40E941702DC01CB0133
:1018B0008FAB98AFA9AFBAAF6FA978AD89AD9AAD2C
:1018C00020E030E040E85FE30E941D0488231CF420
:1018D00081E08EAB91C06FA978AD89AD9AAD20E063
:1018E00030E04FE753E40E94BD0318160CF07BC0B4
:1018F0006BAD7CAD8DAD9EAD20E030E04AE754E4A9
:101900000E941103DC01CB018AAB9BABACABBDAB3E
:101910006AA97BA98CA99DA920E030E04AE755E49B
:101920000E941702DC01CB018EA79FA7A8ABB9AB21
:101930006EA57FA588A999A920E030E040E85FE383
:101940000E941D0488232CF481E090E09DA78CA7C1
:101950003FC06EA57FA588A999A920E03FEF4FE77A
:1019600057E40E94BD0318164CF56AA97BA98CA9FF
:101970009DA920E030E040E251E40E941702DC0122
:10198000CB01BC01CD010E944100DC01CB019DA730
:101990008CA70FC080E991E09BA78AA78AA59BA589
:1019A0000197F1F79BA78AA78CA59DA501979DA7F5
:1019B0008CA78CA59DA5009769F724C06EA57FA56F
:1019C00088A999A90E944100DC01CB019DA78CA7A1
:1019D0008CA59DA599A788A788A599A50197F1F73A
:1019E00099A788A70FC06FA978AD89AD9AAD0E945D
:1019F0004100DC01CB018EAB8EA98FA38FA18A950C
:101A0000F1F78FA38FE00E94470E80E090E0ACE1F9
:101A1000B2E48BA39CA3ADA3BEA36BA17CA18DA1BB
:101A20009EA12BEA3AEA4AEA50E40E941702DC013E
:101A3000CB018F8F98A3A9A3BAA36F8D78A189A199
:101A40009AA120E030E040E85FE30E941D04882373
:101A50001CF481E08E8F91C06F8D78A189A19AA12D
:101A600020E030E04FE753E40E94BD0318160CF06D
:101A70007BC06BA17CA18DA19EA120E030E04AE754
:101A800054E40E941103DC01CB018A8F9B8FAC8F41
:101A9000BD8F6A8D7B8D8C8D9D8D20E030E04AE777
:101AA00055E40E941702DC01CB018E8B9F8BA88F1F
:101AB000B98F6E897F89888D998D20E030E040E86C
:101AC0005FE30E941D0488232CF481E090E09D8B4D
:101AD0008C8B3FC06E897F89888D998D20E03FEF88
:101AE0004FE757E40E94BD0318164CF56A8D7B8DB5
:101AF0008C8D9D8D20E030E040E251E40E94170281
:101B0000DC01CB01BC01CD010E944100DC01CB0115
:101B10009D8B8C8B0FC080E991E09B8B8A8B8A898F
:101B20009B890197F1F79B8B8A8B8C899D89019703
:101B30009D8B8C8B8C899D89009769F724C06E8959
:101B40007F89888D998D0E944100DC01CB019D8B9E
:101B50008C8B8C899D89998B888B88899989019731
:101B6000F1F7998B888B0FC06F8D78A189A19AA10D
:101B70000E944100DC01CB018E8F8E8D8F878F8577
:101B80008A95F1F78F8781E00E94470E8AE097EDF2
:101B9000A3ECBFE38B879C87AD87BE876B857C8575
:101BA0008D859E8520E030E04AE755E40E941702CB
:101BB000DC01CB018F839887A987BA876F817885ED
:101BC00089859A8520E030E040E85FE30E941D04AB
:101BD00088232CF481E090E09E838D833FC06F8149
:101BE000788589859A8520E03FEF4FE757E40E948A
:101BF000BD0318164CF56B857C858D859E8520E090
:101C000030E040E251E40E941702DC01CB01BC014C
:101C1000CD010E944100DC01CB019E838D830FC06A
:101C200080E991E09C838B838B819C810197F1F704
:101C30009C838B838D819E8101979E838D838D8173
:101C40009E81009769F714C06F81788589859A8590
:101C50000E944100DC01CB019E838D838D819E819A
:101C60009A83898389819A810197F1F79A8389837D
:101C700086E00E94470EC45BDF4F0FB6F894DEBFCC
:101C80000FBECDBFCF91DF911F910F910895DF93CC
:101C9000CF93CDB7DEB72F970FB6F894DEBF0FBE48
:101CA000CDBF8F8788E060E00E949A0880E06F8552
:101CB0000E94350789E061E00E949A0880E090E088
:101CC000A0E8BFE38B879C87AD87BE876B857C854B
:101CD0008D859E8520E030E04AE755E40E9417029A
:101CE000DC01CB018F839887A987BA876F817885BC
:101CF00089859A8520E030E040E85FE30E941D047A
:101D000088232CF481E090E09E838D833FC06F8117
:101D1000788589859A8520E03FEF4FE757E40E9458
:101D2000BD0318164CF56B857C858D859E8520E05E
:101D300030E040E251E40E941702DC01CB01BC011B
:101D4000CD010E944100DC01CB019E838D830FC039
:101D500080E991E09C838B838B819C810197F1F7D3
:101D60009C838B838D819E8101979E838D838D8142
:101D70009E81009769F714C06F81788589859A855F
:101D80000E944100DC01CB019E838D838D819E8169
:101D90009A83898389819A810197F1F79A8389834C
:101DA00089E060E00E949A082F960FB6F894DEBF93
:101DB0000FBECDBFCF91DF910895DF93CF9300D0B9
:101DC00000D00F92CDB7DEB78A836B8319828A81E8
:101DD000282F30E03D832C838C819D81009731F04A
:101DE0002C813D812130310529F007C08B8180583D
:101DF000898303C08B818054898389810E94470E27
:101E00000F900F900F900F900F90CF91DF9108954A
:101E1000DF93CF93CDB7DEB72F970FB6F894DEBF21
:101E20000FBECDBF8F8788E061E00E949A0880E0F6
:101E30006F850E94350789E061E00E949A0880E082
:101E400090E0A0E8BFE38B879C87AD87BE876B855A
:101E50007C858D859E8520E030E04AE755E40E9430
:101E60001702DC01CB018F839887A987BA876F811E
:101E7000788589859A8520E030E040E85FE30E941C
:101E80001D0488232CF481E090E09E838D833FC065
:101E90006F81788589859A8520E03FEF4FE757E489
:101EA0000E94BD0318164CF56B857C858D859E853B
:101EB00020E030E040E251E40E941702DC01CB0157
:101EC000BC01CD010E944100DC01CB019E838D83CA
:101ED0000FC080E991E09C838B838B819C8101976B
:101EE000F1F79C838B838D819E8101979E838D83E7
:101EF0008D819E81009769F714C06F8178858985EF
:101F00009A850E944100DC01CB019E838D838D81E7
:101F10009E819A83898389819A810197F1F79A83B7
:101F2000898389E060E00E949A082F960FB6F894A2
:101F3000DEBF0FBECDBFCF91DF910895DF93CF936A
:101F4000CDB7DEB761970FB6F894DEBF0FBECDBF39
:101F5000998B888B88E061E00E949A081F868AC06E
:101F60008F85282F30E088899989FC01E20FF31FC3
:101F7000908180E0692F0E94350789E061E00E942E
:101F80009A0880E090E0A0E8BFE38B879C87AD874C
:101F9000BE876B857C858D859E8520E030E04AE795
:101FA00055E40E941702DC01CB018F839887A98733
:101FB000BA876F81788589859A8520E030E040E88E
:101FC0005FE30E941D0488232CF481E090E09E834F
:101FD0008D833FC06F81788589859A8520E03FEFAA
:101FE0004FE757E40E94BD0318164CF56B857C85BE
:101FF0008D859E8520E030E040E251E40E9417028A
:10200000DC01CB01BC01CD010E944100DC01CB0110
:102010009E838D830FC080E991E09C838B838B81AD
:102020009C810197F1F79C838B838D819E81019721
:102030009E838D838D819E81009769F714C06F8187
:10204000788589859A850E944100DC01CB019E83B9
:102050008D838D819E819A83898389819A8101975D
:10206000F1F79A83898389E060E00E949A088F855E
:102070008F5F8F878F85282F30E088899989FC01B1
:10208000E20FF31F8081882309F06ACF61960FB6B3
:10209000F894DEBF0FBECDBFCF91DF910895DF93DF
:1020A000CF93CDB7DEB728970FB6F894DEBF0FBE3B
:1020B000CDBF6D837E838F8398878D819E81AF8115
:1020C000B885BB23DCF48DE20E94080F8D819E81D0
:1020D000AF81B88580959095A095B09589839A83B6
:1020E000AB83BC8389819A81AB81BC810196A11DA0
:1020F000B11D89839A83AB83BC8308C08D819E8187
:10210000AF81B88589839A83AB83BC8389819A81A7
:10211000AB81BC818A309105A105B10590F0898120
:102120009A81AB81BC812AE030E040E050E0BC0104
:10213000CD010E947513DA01C901BC01CD010E94D5
:102140004F1089819A81AB81BC812AE030E040E068
:1021500050E0BC01CD010E947513DC01CB01805D14
:102160000E94080F28960FB6F894DEBF0FBECDBFB1
:10217000CF91DF910895DF93CF93CDB7DEB72C9742
:102180000FB6F894DEBF0FBECDBF69877A878B8705
:102190009C8769857A858B859C8520E030E040E0CE
:1021A00050E00E941D04882364F48DE20E94080F11
:1021B00089859A85AB85BC85B05889879A87AB8716
:1021C000BC8769857A858B859C850E94AB04DC0180
:1021D000CB018D839E83AF83B8876D817E818F8194
:1021E00098850E944D049B01AC0169857A858B8599
:1021F0009C850E94B901DC01CB01BC01CD0120E02E
:1022000030E040E251E40E941702DC01CB01BC0146
:10221000CD010E944100DC01CB0189839A83AB830D
:10222000BC838D819E81AF81B885BC01CD010E94A8
:102230004F108EE20E94080F89819A81AB81BC8188
:10224000BC01CD010E944F102C960FB6F894DEBF52
:102250000FBECDBFCF91DF910895DF93CF93CDB760
:10226000DEB780E891E064E040E00E94720A80E816
:1022700091E064E041E00E949B0A84E891E064E020
:1022800041E00E94720A84E891E064E041E00E942B
:102290009B0ACF91DF910895DF93CF9300D000D0B8
:1022A0000F92CDB7DEB79C838B831A8256C08A818A
:1022B000882F90E0FC01EC57FE4F808160E00E9487
:1022C0009A0819823AC08981882F90E0FC01E05871
:1022D000FE4F80810E94F709882361F58981482F8C
:1022E00050E08A81282F30E0CA01880F991F880F9B
:1022F000991F820F931FFC01E857FE4F8081EB81ED
:10230000FC8180838981882F90E0FC01E058FE4F9A
:1023100080810E94F7098823A9F38A81882F90E0A1
:10232000FC01EC57FE4F808161E00E949A0881E039
:102330008D8318C089818F5F89838981843018F2E9
:102340008A81882F90E0FC01EC57FE4F808161E08C
:102350000E949A088A818F5F8A838A81843008F478
:10236000A6CF1D828D810F900F900F900F900F9030
:10237000CF91DF910895DF93CF93CDB7DEB788E992
:1023800091E064E041E00E94720A84E161E00E9411
:10239000B80785E161E00E94B807CF91DF91089509
:1023A000DF93CF9300D0CDB7DEB78A8319821DC0EB
:1023B0008981882F90E0FC01E856FE4F40818A8198
:1023C000282F30E08981882F90E0B90102C07595EF
:1023D00067958A95E2F7CB01982F9170842F692F2A
:1023E0000E949A0889818F5F89838981843000F3F4
:1023F0000F900F90CF91DF910895DF93CF9300D08E
:1024000000D0CDB7DEB789836A838981282F30E079
:102410003C832B838B819C81009731F02B813C8105
:102420002130310531F009C084E16A810E949A08A7
:1024300004C085E16A810E949A080F900F900F9066
:102440000F90CF91DF910895EF92FF920F931F931A
:10245000DF93CF93CDB7DEB766970FB6F894DEBFA4
:102460000FBECDBF198618861F821E8280E090E0C5
:10247000A0E0B0E08A839B83AC83BD831A86198277
:102480000E942D110E94780BCE010A960E944C11D9
:102490008130D1F78A85803398F18A858A3380F537
:1024A00089818823A9F4888599859C01220F331F8F
:1024B000C901880F991F880F991F280F391F8A8516
:1024C000882F90E0C097820F931F9987888714C048
:1024D0008E819F819C01220F331FC901880F991F94
:1024E000880F991F280F391F8A85882F90E0C09781
:1024F000820F931F9F838E838A850E94080FC4CF0B
:102500008A851E8A8D3211F421E02E8B8A851D8AE0
:102510008B3211F431E03D8B8E894D89842B282F2D
:1025200030E03C8B2B8B8A851A8A198A8A3221F4F7
:1025300041E050E05A8B498B8B899C8929893A89E3
:10254000822B932B988B8F878A851E861D868F32D0
:1025500021F441E050E05E874D878F8598892D8575
:102560003E85822B932B009731F08A858983898160
:102570000E94080F89CF8A858D3309F0A1C0898117
:10258000482F50E05C874B878B859C858B3291056B
:10259000B9F02B853C852C32310534F44B855C85B4
:1025A0004A325105C9F17DC08B859C858D329105DC
:1025B000E1F02B853C852F32310509F450C071C004
:1025C000288539858E819F81820F931FAA2797FDC9
:1025D000A095BA2FBC01CD010E944D04DC01CB01B6
:1025E0008A839B83AC83BD835CC0288539858E81BB
:1025F0009F81A901481B590BCA01AA2797FDA095E5
:10260000BA2FBC01CD010E944D04DC01CB018A83AD
:102610009B83AC83BD8345C088859985AA2797FD98
:10262000A095BA2FBC01CD010E944D047B018C0105
:102630008E819F81AA2797FDA095BA2FBC01CD015D
:102640000E944D049B01AC01C801B7010E94170212
:10265000DC01CB018A839B83AC83BD8322C0888548
:102660009985AA2797FDA095BA2FBC01CD010E949C
:102670004D047B018C018E819F81AA2797FDA09537
:10268000BA2FBC01CD010E944D049B01AC01C801D1
:10269000B7010E941103DC01CB018A839B83AC83C9
:1026A000BD8381E00E94470E8A850E94080F8A81BF
:1026B0009B81AC81BD81BC01CD010E94BB10E4CEE9
:1026C0008A85833409F0E0CE198618861F821E821F
:1026D000198280E090E0A0E0B0E08A839B83AC8325
:1026E000BD8381E00E94470ECFCEA1E21A2EAA1B25
:1026F000BB1BFD010DC0AA1FBB1FEE1FFF1FA217B2
:10270000B307E407F50720F0A21BB30BE40BF50BAE
:10271000661F771F881F991F1A9469F76095709537
:10272000809590959B01AC01BD01CF0108952F923A
:102730003F924F925F926F927F928F929F92AF9251
:10274000BF92CF92DF92EF92FF920F931F93CF939E
:10275000DF93CDB7DEB7CA1BDB0B0FB6F894DEBF35
:102760000FBECDBF09942A88398848885F846E845B
:102770007D848C849B84AA84B984C884DF80EE80A5
:10278000FD800C811B81AA81B981CE0FD11D0FB6AE
:10279000F894DEBF0FBECDBFED010895F894FFCFD2
:1027A0000000000000000000000102020303030318
:1027B00004040404040404040505050505050505D1
:1027C00005050505050505050606060606060606B1
:1027D0000606060606060606060606060606060699
:1027E0000606060606060606070707070707070781
:1027F0000707070707070707070707070707070769
:102800000707070707070707070707070707070758
:102810000707070707070707070707070707070748
:102820000707070707070707080808080808080830
:102830000808080808080808080808080808080818
:102840000808080808080808080808080808080808
:1028500008080808080808080808080808080808F8
:1028600008080808080808080808080808080808E8
:1028700008080808080808080808080808080808D8
:1028800008080808080808080808080808080808C8
:1028900008080808080808080808080808080808B8
:1028A0000808080808080808000102030405063F94
:1028B000065B4F666D7D077F6F0A0B0C04050607EC
:1028C0000A0B0C0D101112133738392F3435362AF4
:0C28D0003132332D43303D2B1011121318
:00000001FF
